{
  "_format": "hh-sol-artifact-1",
  "contractName": "Mundo",
  "sourceName": "contracts/Mundo.sol",
  "abi": [
    {
      "inputs": [],
      "stateMutability": "nonpayable",
      "type": "constructor"
    },
    {
      "anonymous": false,
      "inputs": [
        {
          "indexed": false,
          "internalType": "address",
          "name": "buyer",
          "type": "address"
        },
        {
          "indexed": false,
          "internalType": "uint256",
          "name": "orderId",
          "type": "uint256"
        },
        {
          "indexed": false,
          "internalType": "uint256",
          "name": "itemId",
          "type": "uint256"
        }
      ],
      "name": "Buy",
      "type": "event"
    },
    {
      "anonymous": false,
      "inputs": [
        {
          "indexed": false,
          "internalType": "string",
          "name": "name",
          "type": "string"
        },
        {
          "indexed": false,
          "internalType": "uint256",
          "name": "cost",
          "type": "uint256"
        },
        {
          "indexed": false,
          "internalType": "uint256",
          "name": "quantity",
          "type": "uint256"
        }
      ],
      "name": "List",
      "type": "event"
    },
    {
      "inputs": [
        {
          "internalType": "uint256",
          "name": "_id",
          "type": "uint256"
        }
      ],
      "name": "buy",
      "outputs": [],
      "stateMutability": "payable",
      "type": "function"
    },
    {
      "inputs": [
        {
          "internalType": "uint256",
          "name": "itemId",
          "type": "uint256"
        }
      ],
      "name": "getItem",
      "outputs": [
        {
          "components": [
            {
              "internalType": "uint256",
              "name": "id",
              "type": "uint256"
            },
            {
              "internalType": "string",
              "name": "name",
              "type": "string"
            },
            {
              "internalType": "string",
              "name": "category",
              "type": "string"
            },
            {
              "internalType": "string",
              "name": "image",
              "type": "string"
            },
            {
              "internalType": "uint256",
              "name": "cost",
              "type": "uint256"
            },
            {
              "internalType": "uint256",
              "name": "rating",
              "type": "uint256"
            },
            {
              "internalType": "uint256",
              "name": "stock",
              "type": "uint256"
            },
            {
              "internalType": "string",
              "name": "description",
              "type": "string"
            }
          ],
          "internalType": "struct Mundo.Item",
          "name": "",
          "type": "tuple"
        }
      ],
      "stateMutability": "view",
      "type": "function"
    },
    {
      "inputs": [
        {
          "internalType": "uint256",
          "name": "",
          "type": "uint256"
        }
      ],
      "name": "items",
      "outputs": [
        {
          "internalType": "uint256",
          "name": "id",
          "type": "uint256"
        },
        {
          "internalType": "string",
          "name": "name",
          "type": "string"
        },
        {
          "internalType": "string",
          "name": "category",
          "type": "string"
        },
        {
          "internalType": "string",
          "name": "image",
          "type": "string"
        },
        {
          "internalType": "uint256",
          "name": "cost",
          "type": "uint256"
        },
        {
          "internalType": "uint256",
          "name": "rating",
          "type": "uint256"
        },
        {
          "internalType": "uint256",
          "name": "stock",
          "type": "uint256"
        },
        {
          "internalType": "string",
          "name": "description",
          "type": "string"
        }
      ],
      "stateMutability": "view",
      "type": "function"
    },
    {
      "inputs": [
        {
          "internalType": "uint256",
          "name": "_id",
          "type": "uint256"
        },
        {
          "internalType": "string",
          "name": "_name",
          "type": "string"
        },
        {
          "internalType": "string",
          "name": "_category",
          "type": "string"
        },
        {
          "internalType": "string",
          "name": "_image",
          "type": "string"
        },
        {
          "internalType": "uint256",
          "name": "_cost",
          "type": "uint256"
        },
        {
          "internalType": "uint256",
          "name": "_rating",
          "type": "uint256"
        },
        {
          "internalType": "uint256",
          "name": "_stock",
          "type": "uint256"
        },
        {
          "internalType": "string",
          "name": "_description",
          "type": "string"
        }
      ],
      "name": "list",
      "outputs": [],
      "stateMutability": "nonpayable",
      "type": "function"
    },
    {
      "inputs": [
        {
          "internalType": "address",
          "name": "",
          "type": "address"
        }
      ],
      "name": "orderCount",
      "outputs": [
        {
          "internalType": "uint256",
          "name": "",
          "type": "uint256"
        }
      ],
      "stateMutability": "view",
      "type": "function"
    },
    {
      "inputs": [
        {
          "internalType": "address",
          "name": "",
          "type": "address"
        },
        {
          "internalType": "uint256",
          "name": "",
          "type": "uint256"
        }
      ],
      "name": "orders",
      "outputs": [
        {
          "internalType": "uint256",
          "name": "time",
          "type": "uint256"
        },
        {
          "components": [
            {
              "internalType": "uint256",
              "name": "id",
              "type": "uint256"
            },
            {
              "internalType": "string",
              "name": "name",
              "type": "string"
            },
            {
              "internalType": "string",
              "name": "category",
              "type": "string"
            },
            {
              "internalType": "string",
              "name": "image",
              "type": "string"
            },
            {
              "internalType": "uint256",
              "name": "cost",
              "type": "uint256"
            },
            {
              "internalType": "uint256",
              "name": "rating",
              "type": "uint256"
            },
            {
              "internalType": "uint256",
              "name": "stock",
              "type": "uint256"
            },
            {
              "internalType": "string",
              "name": "description",
              "type": "string"
            }
          ],
          "internalType": "struct Mundo.Item",
          "name": "item",
          "type": "tuple"
        }
      ],
      "stateMutability": "view",
      "type": "function"
    },
    {
      "inputs": [],
      "name": "owner",
      "outputs": [
        {
          "internalType": "address",
          "name": "",
          "type": "address"
        }
      ],
      "stateMutability": "view",
      "type": "function"
    },
    {
      "inputs": [],
      "name": "withdraw",
      "outputs": [],
      "stateMutability": "nonpayable",
      "type": "function"
    }
  ],
  "bytecode": "0x608060405234801561001057600080fd5b50336000806101000a81548173ffffffffffffffffffffffffffffffffffffffff021916908373ffffffffffffffffffffffffffffffffffffffff160217905550611c99806100606000396000f3fe60806040526004361061007b5760003560e01c80638da5cb5b1161004e5780638da5cb5b1461014f578063bfb231d21461017a578063d96a094a146101be578063f752055e146101da5761007b565b80633129e773146100805780633ccfd60b146100bd578063713d856b146100d4578063793b8c6d14610111575b600080fd5b34801561008c57600080fd5b506100a760048036038101906100a291906111de565b610203565b6040516100b4919061136f565b60405180910390f35b3480156100c957600080fd5b506100d26104a1565b005b3480156100e057600080fd5b506100fb60048036038101906100f691906113ef565b610593565b604051610108919061142b565b60405180910390f35b34801561011d57600080fd5b5061013860048036038101906101339190611446565b6105ab565b604051610146929190611486565b60405180910390f35b34801561015b57600080fd5b50610164610857565b60405161017191906114c5565b60405180910390f35b34801561018657600080fd5b506101a1600480360381019061019c91906111de565b61087b565b6040516101b598979695949392919061152a565b60405180910390f35b6101d860048036038101906101d391906111de565b610ae3565b005b3480156101e657600080fd5b5061020160048036038101906101fc91906116f9565b610fdc565b005b61020b61114f565b6001600083815260200190815260200160002060405180610100016040529081600082015481526020016001820180546102449061184e565b80601f01602080910402602001604051908101604052809291908181526020018280546102709061184e565b80156102bd5780601f10610292576101008083540402835291602001916102bd565b820191906000526020600020905b8154815290600101906020018083116102a057829003601f168201915b505050505081526020016002820180546102d69061184e565b80601f01602080910402602001604051908101604052809291908181526020018280546103029061184e565b801561034f5780601f106103245761010080835404028352916020019161034f565b820191906000526020600020905b81548152906001019060200180831161033257829003601f168201915b505050505081526020016003820180546103689061184e565b80601f01602080910402602001604051908101604052809291908181526020018280546103949061184e565b80156103e15780601f106103b6576101008083540402835291602001916103e1565b820191906000526020600020905b8154815290600101906020018083116103c457829003601f168201915b505050505081526020016004820154815260200160058201548152602001600682015481526020016007820180546104189061184e565b80601f01602080910402602001604051908101604052809291908181526020018280546104449061184e565b80156104915780601f1061046657610100808354040283529160200191610491565b820191906000526020600020905b81548152906001019060200180831161047457829003601f168201915b5050505050815250509050919050565b60008054906101000a900473ffffffffffffffffffffffffffffffffffffffff1673ffffffffffffffffffffffffffffffffffffffff163373ffffffffffffffffffffffffffffffffffffffff16146104f957600080fd5b60008060009054906101000a900473ffffffffffffffffffffffffffffffffffffffff1673ffffffffffffffffffffffffffffffffffffffff1647604051610540906118b0565b60006040518083038185875af1925050503d806000811461057d576040519150601f19603f3d011682016040523d82523d6000602084013e610582565b606091505b505090508061059057600080fd5b50565b60036020528060005260406000206000915090505481565b6002602052816000526040600020602052806000526040600020600091509150508060000154908060010160405180610100016040529081600082015481526020016001820180546105fc9061184e565b80601f01602080910402602001604051908101604052809291908181526020018280546106289061184e565b80156106755780601f1061064a57610100808354040283529160200191610675565b820191906000526020600020905b81548152906001019060200180831161065857829003601f168201915b5050505050815260200160028201805461068e9061184e565b80601f01602080910402602001604051908101604052809291908181526020018280546106ba9061184e565b80156107075780601f106106dc57610100808354040283529160200191610707565b820191906000526020600020905b8154815290600101906020018083116106ea57829003601f168201915b505050505081526020016003820180546107209061184e565b80601f016020809104026020016040519081016040528092919081815260200182805461074c9061184e565b80156107995780601f1061076e57610100808354040283529160200191610799565b820191906000526020600020905b81548152906001019060200180831161077c57829003601f168201915b505050505081526020016004820154815260200160058201548152602001600682015481526020016007820180546107d09061184e565b80601f01602080910402602001604051908101604052809291908181526020018280546107fc9061184e565b80156108495780601f1061081e57610100808354040283529160200191610849565b820191906000526020600020905b81548152906001019060200180831161082c57829003601f168201915b505050505081525050905082565b60008054906101000a900473ffffffffffffffffffffffffffffffffffffffff1681565b60016020528060005260406000206000915090508060000154908060010180546108a49061184e565b80601f01602080910402602001604051908101604052809291908181526020018280546108d09061184e565b801561091d5780601f106108f25761010080835404028352916020019161091d565b820191906000526020600020905b81548152906001019060200180831161090057829003601f168201915b5050505050908060020180546109329061184e565b80601f016020809104026020016040519081016040528092919081815260200182805461095e9061184e565b80156109ab5780601f10610980576101008083540402835291602001916109ab565b820191906000526020600020905b81548152906001019060200180831161098e57829003601f168201915b5050505050908060030180546109c09061184e565b80601f01602080910402602001604051908101604052809291908181526020018280546109ec9061184e565b8015610a395780601f10610a0e57610100808354040283529160200191610a39565b820191906000526020600020905b815481529060010190602001808311610a1c57829003601f168201915b505050505090806004015490806005015490806006015490806007018054610a609061184e565b80601f0160208091040260200160405190810160405280929190818152602001828054610a8c9061184e565b8015610ad95780601f10610aae57610100808354040283529160200191610ad9565b820191906000526020600020905b815481529060010190602001808311610abc57829003601f168201915b5050505050905088565b6000600160008381526020019081526020016000206040518061010001604052908160008201548152602001600182018054610b1e9061184e565b80601f0160208091040260200160405190810160405280929190818152602001828054610b4a9061184e565b8015610b975780601f10610b6c57610100808354040283529160200191610b97565b820191906000526020600020905b815481529060010190602001808311610b7a57829003601f168201915b50505050508152602001600282018054610bb09061184e565b80601f0160208091040260200160405190810160405280929190818152602001828054610bdc9061184e565b8015610c295780601f10610bfe57610100808354040283529160200191610c29565b820191906000526020600020905b815481529060010190602001808311610c0c57829003601f168201915b50505050508152602001600382018054610c429061184e565b80601f0160208091040260200160405190810160405280929190818152602001828054610c6e9061184e565b8015610cbb5780601f10610c9057610100808354040283529160200191610cbb565b820191906000526020600020905b815481529060010190602001808311610c9e57829003601f168201915b50505050508152602001600482015481526020016005820154815260200160068201548152602001600782018054610cf29061184e565b80601f0160208091040260200160405190810160405280929190818152602001828054610d1e9061184e565b8015610d6b5780601f10610d4057610100808354040283529160200191610d6b565b820191906000526020600020905b815481529060010190602001808311610d4e57829003601f168201915b50505050508152505090508060800151341015610d8757600080fd5b60008160c0015111610d9857600080fd5b60006040518060400160405280428152602001838152509050600360003373ffffffffffffffffffffffffffffffffffffffff1673ffffffffffffffffffffffffffffffffffffffff1681526020019081526020016000206000815480929190610e01906118f4565b919050555080600260003373ffffffffffffffffffffffffffffffffffffffff1673ffffffffffffffffffffffffffffffffffffffff1681526020019081526020016000206000600360003373ffffffffffffffffffffffffffffffffffffffff1673ffffffffffffffffffffffffffffffffffffffff16815260200190815260200160002054815260200190815260200160002060008201518160000155602082015181600101600082015181600001556020820151816001019081610ec89190611ae8565b506040820151816002019081610ede9190611ae8565b506060820151816003019081610ef49190611ae8565b506080820151816004015560a0820151816005015560c0820151816006015560e0820151816007019081610f289190611ae8565b50505090505060018260c00151610f3f9190611bba565b60016000858152602001908152602001600020600601819055507f1cbc5ab135991bd2b6a4b034a04aa2aa086dac1371cb9b16b8b5e2ed6b036bed33600360003373ffffffffffffffffffffffffffffffffffffffff1673ffffffffffffffffffffffffffffffffffffffff168152602001908152602001600020548460000151604051610fcf93929190611bee565b60405180910390a1505050565b60008054906101000a900473ffffffffffffffffffffffffffffffffffffffff1673ffffffffffffffffffffffffffffffffffffffff163373ffffffffffffffffffffffffffffffffffffffff161461103457600080fd5b60006040518061010001604052808a815260200189815260200188815260200187815260200186815260200185815260200184815260200183815250905080600160008b81526020019081526020016000206000820151816000015560208201518160010190816110a59190611ae8565b5060408201518160020190816110bb9190611ae8565b5060608201518160030190816110d19190611ae8565b506080820151816004015560a0820151816005015560c0820151816006015560e08201518160070190816111059190611ae8565b509050507ffdbe2a012c10ec01592653978eaa09b5ca60b143a0e617505b2ebcbd911ec5b888868560405161113c93929190611c25565b60405180910390a1505050505050505050565b60405180610100016040528060008152602001606081526020016060815260200160608152602001600081526020016000815260200160008152602001606081525090565b6000604051905090565b600080fd5b600080fd5b6000819050919050565b6111bb816111a8565b81146111c657600080fd5b50565b6000813590506111d8816111b2565b92915050565b6000602082840312156111f4576111f361119e565b5b6000611202848285016111c9565b91505092915050565b611214816111a8565b82525050565b600081519050919050565b600082825260208201905092915050565b60005b83811015611254578082015181840152602081019050611239565b60008484015250505050565b6000601f19601f8301169050919050565b600061127c8261121a565b6112868185611225565b9350611296818560208601611236565b61129f81611260565b840191505092915050565b6000610100830160008301516112c3600086018261120b565b50602083015184820360208601526112db8282611271565b915050604083015184820360408601526112f58282611271565b9150506060830151848203606086015261130f8282611271565b9150506080830151611324608086018261120b565b5060a083015161133760a086018261120b565b5060c083015161134a60c086018261120b565b5060e083015184820360e08601526113628282611271565b9150508091505092915050565b6000602082019050818103600083015261138981846112aa565b905092915050565b600073ffffffffffffffffffffffffffffffffffffffff82169050919050565b60006113bc82611391565b9050919050565b6113cc816113b1565b81146113d757600080fd5b50565b6000813590506113e9816113c3565b92915050565b6000602082840312156114055761140461119e565b5b6000611413848285016113da565b91505092915050565b611425816111a8565b82525050565b6000602082019050611440600083018461141c565b92915050565b6000806040838503121561145d5761145c61119e565b5b600061146b858286016113da565b925050602061147c858286016111c9565b9150509250929050565b600060408201905061149b600083018561141c565b81810360208301526114ad81846112aa565b90509392505050565b6114bf816113b1565b82525050565b60006020820190506114da60008301846114b6565b92915050565b600082825260208201905092915050565b60006114fc8261121a565b61150681856114e0565b9350611516818560208601611236565b61151f81611260565b840191505092915050565b600061010082019050611540600083018b61141c565b8181036020830152611552818a6114f1565b9050818103604083015261156681896114f1565b9050818103606083015261157a81886114f1565b9050611589608083018761141c565b61159660a083018661141c565b6115a360c083018561141c565b81810360e08301526115b581846114f1565b90509998505050505050505050565b600080fd5b600080fd5b7f4e487b7100000000000000000000000000000000000000000000000000000000600052604160045260246000fd5b61160682611260565b810181811067ffffffffffffffff82111715611625576116246115ce565b5b80604052505050565b6000611638611194565b905061164482826115fd565b919050565b600067ffffffffffffffff821115611664576116636115ce565b5b61166d82611260565b9050602081019050919050565b82818337600083830152505050565b600061169c61169784611649565b61162e565b9050828152602081018484840111156116b8576116b76115c9565b5b6116c384828561167a565b509392505050565b600082601f8301126116e0576116df6115c4565b5b81356116f0848260208601611689565b91505092915050565b600080600080600080600080610100898b03121561171a5761171961119e565b5b60006117288b828c016111c9565b985050602089013567ffffffffffffffff811115611749576117486111a3565b5b6117558b828c016116cb565b975050604089013567ffffffffffffffff811115611776576117756111a3565b5b6117828b828c016116cb565b965050606089013567ffffffffffffffff8111156117a3576117a26111a3565b5b6117af8b828c016116cb565b95505060806117c08b828c016111c9565b94505060a06117d18b828c016111c9565b93505060c06117e28b828c016111c9565b92505060e089013567ffffffffffffffff811115611803576118026111a3565b5b61180f8b828c016116cb565b9150509295985092959890939650565b7f4e487b7100000000000000000000000000000000000000000000000000000000600052602260045260246000fd5b6000600282049050600182168061186657607f821691505b6020821081036118795761187861181f565b5b50919050565b600081905092915050565b50565b600061189a60008361187f565b91506118a58261188a565b600082019050919050565b60006118bb8261188d565b9150819050919050565b7f4e487b7100000000000000000000000000000000000000000000000000000000600052601160045260246000fd5b60006118ff826111a8565b91507fffffffffffffffffffffffffffffffffffffffffffffffffffffffffffffffff8203611931576119306118c5565b5b600182019050919050565b60008190508160005260206000209050919050565b60006020601f8301049050919050565b600082821b905092915050565b60006008830261199e7fffffffffffffffffffffffffffffffffffffffffffffffffffffffffffffffff82611961565b6119a88683611961565b95508019841693508086168417925050509392505050565b6000819050919050565b60006119e56119e06119db846111a8565b6119c0565b6111a8565b9050919050565b6000819050919050565b6119ff836119ca565b611a13611a0b826119ec565b84845461196e565b825550505050565b600090565b611a28611a1b565b611a338184846119f6565b505050565b5b81811015611a5757611a4c600082611a20565b600181019050611a39565b5050565b601f821115611a9c57611a6d8161193c565b611a7684611951565b81016020851015611a85578190505b611a99611a9185611951565b830182611a38565b50505b505050565b600082821c905092915050565b6000611abf60001984600802611aa1565b1980831691505092915050565b6000611ad88383611aae565b9150826002028217905092915050565b611af18261121a565b67ffffffffffffffff811115611b0a57611b096115ce565b5b611b14825461184e565b611b1f828285611a5b565b600060209050601f831160018114611b525760008415611b40578287015190505b611b4a8582611acc565b865550611bb2565b601f198416611b608661193c565b60005b82811015611b8857848901518255600182019150602085019450602081019050611b63565b86831015611ba55784890151611ba1601f891682611aae565b8355505b6001600288020188555050505b505050505050565b6000611bc5826111a8565b9150611bd0836111a8565b9250828203905081811115611be857611be76118c5565b5b92915050565b6000606082019050611c0360008301866114b6565b611c10602083018561141c565b611c1d604083018461141c565b949350505050565b60006060820190508181036000830152611c3f81866114f1565b9050611c4e602083018561141c565b611c5b604083018461141c565b94935050505056fea26469706673582212207a7eac216e555ffa0773f078e162ec5287015792059de38bcb885bde45a8e8dc64736f6c63430008110033",
  "linkReferences": {},
  "deployedLinkReferences": {}
}